{
  "contractName": "SimpleDataArray",
  "abi": [
    {
      "anonymous": false,
      "inputs": [
        {
          "indexed": true,
          "internalType": "uint256",
          "name": "id",
          "type": "uint256"
        },
        {
          "indexed": true,
          "internalType": "address",
          "name": "author",
          "type": "address"
        },
        {
          "indexed": false,
          "internalType": "string",
          "name": "message",
          "type": "string"
        }
      ],
      "name": "DataAdded",
      "type": "event"
    },
    {
      "inputs": [
        {
          "internalType": "address",
          "name": "",
          "type": "address"
        },
        {
          "internalType": "uint256",
          "name": "",
          "type": "uint256"
        }
      ],
      "name": "authorEntries",
      "outputs": [
        {
          "internalType": "uint256",
          "name": "",
          "type": "uint256"
        }
      ],
      "stateMutability": "view",
      "type": "function",
      "constant": true
    },
    {
      "inputs": [
        {
          "internalType": "uint256",
          "name": "",
          "type": "uint256"
        }
      ],
      "name": "dataEntries",
      "outputs": [
        {
          "internalType": "uint256",
          "name": "id",
          "type": "uint256"
        },
        {
          "internalType": "string",
          "name": "message",
          "type": "string"
        },
        {
          "internalType": "address",
          "name": "author",
          "type": "address"
        },
        {
          "internalType": "uint256",
          "name": "timestamp",
          "type": "uint256"
        }
      ],
      "stateMutability": "view",
      "type": "function",
      "constant": true
    },
    {
      "inputs": [],
      "name": "nextId",
      "outputs": [
        {
          "internalType": "uint256",
          "name": "",
          "type": "uint256"
        }
      ],
      "stateMutability": "view",
      "type": "function",
      "constant": true
    },
    {
      "inputs": [
        {
          "internalType": "string",
          "name": "_message",
          "type": "string"
        }
      ],
      "name": "addData",
      "outputs": [],
      "stateMutability": "nonpayable",
      "type": "function"
    },
    {
      "inputs": [],
      "name": "getDataCount",
      "outputs": [
        {
          "internalType": "uint256",
          "name": "",
          "type": "uint256"
        }
      ],
      "stateMutability": "view",
      "type": "function",
      "constant": true
    },
    {
      "inputs": [
        {
          "internalType": "uint256",
          "name": "_id",
          "type": "uint256"
        }
      ],
      "name": "getDataById",
      "outputs": [
        {
          "components": [
            {
              "internalType": "uint256",
              "name": "id",
              "type": "uint256"
            },
            {
              "internalType": "string",
              "name": "message",
              "type": "string"
            },
            {
              "internalType": "address",
              "name": "author",
              "type": "address"
            },
            {
              "internalType": "uint256",
              "name": "timestamp",
              "type": "uint256"
            }
          ],
          "internalType": "struct SimpleDataArray.DataEntry",
          "name": "",
          "type": "tuple"
        }
      ],
      "stateMutability": "view",
      "type": "function",
      "constant": true
    },
    {
      "inputs": [
        {
          "internalType": "address",
          "name": "_author",
          "type": "address"
        }
      ],
      "name": "getEntriesByAuthor",
      "outputs": [
        {
          "internalType": "uint256[]",
          "name": "",
          "type": "uint256[]"
        }
      ],
      "stateMutability": "view",
      "type": "function",
      "constant": true
    }
  ],
  "bytecode": "0x608060405234801561001057600080fd5b50611018806100206000396000f3fe608060405234801561001057600080fd5b506004361061007d5760003560e01c806361b8ce8c1161005b57806361b8ce8c146101155780637355a42414610133578063d4a2498d14610151578063f2722a9f1461016d5761007d565b8063325f4658146100825780634fc5660d146100b557806358bc35e6146100e5575b600080fd5b61009c60048036038101906100979190610715565b61019d565b6040516100ac9493929190610822565b60405180910390f35b6100cf60048036038101906100ca919061089a565b610275565b6040516100dc91906108da565b60405180910390f35b6100ff60048036038101906100fa91906108f5565b6102a6565b60405161010c91906109e0565b60405180910390f35b61011d610343565b60405161012a91906108da565b60405180910390f35b61013b610349565b60405161014891906108da565b60405180910390f35b61016b60048036038101906101669190610a67565b610353565b005b61018760048036038101906101829190610715565b61052b565b6040516101949190610b70565b60405180910390f35b60006020528060005260406000206000915090508060000154908060010180546101c690610bc1565b80601f01602080910402602001604051908101604052809291908181526020018280546101f290610bc1565b801561023f5780601f106102145761010080835404028352916020019161023f565b820191906000526020600020905b81548152906001019060200180831161022257829003601f168201915b5050505050908060020160009054906101000a900473ffffffffffffffffffffffffffffffffffffffff16908060030154905084565b6001602052816000526040600020818154811061029157600080fd5b90600052602060002001600091509150505481565b60606000600160008473ffffffffffffffffffffffffffffffffffffffff1673ffffffffffffffffffffffffffffffffffffffff16815260200190815260200160002080548060200260200160405190810160405280929190818152602001828054801561033357602002820191906000526020600020905b81548152602001906001019080831161031f575b5050505050905080915050919050565b60025481565b6000600254905090565b60006002600081548092919061036890610c21565b919050559050604051806080016040528082815260200184848080601f016020809104026020016040519081016040528093929190818152602001838380828437600081840152601f19601f8201169050808301925050505050505081526020013373ffffffffffffffffffffffffffffffffffffffff1681526020014281525060008083815260200190815260200160002060008201518160000155602082015181600101908161041a9190610e44565b5060408201518160020160006101000a81548173ffffffffffffffffffffffffffffffffffffffff021916908373ffffffffffffffffffffffffffffffffffffffff16021790555060608201518160030155905050600160003373ffffffffffffffffffffffffffffffffffffffff1673ffffffffffffffffffffffffffffffffffffffff1681526020019081526020016000208190806001815401808255809150506001900390600052602060002001600090919091909150553373ffffffffffffffffffffffffffffffffffffffff16817f57901cf2ddbce58c058c5a9cf784b280e0e46f245767c559fc08a1b8c801e13f858560405161051e929190610f52565b60405180910390a3505050565b610533610697565b6002548210610577576040517f08c379a000000000000000000000000000000000000000000000000000000000815260040161056e90610fc2565b60405180910390fd5b600080838152602001908152602001600020604051806080016040529081600082015481526020016001820180546105ae90610bc1565b80601f01602080910402602001604051908101604052809291908181526020018280546105da90610bc1565b80156106275780601f106105fc57610100808354040283529160200191610627565b820191906000526020600020905b81548152906001019060200180831161060a57829003601f168201915b505050505081526020016002820160009054906101000a900473ffffffffffffffffffffffffffffffffffffffff1673ffffffffffffffffffffffffffffffffffffffff1673ffffffffffffffffffffffffffffffffffffffff1681526020016003820154815250509050919050565b60405180608001604052806000815260200160608152602001600073ffffffffffffffffffffffffffffffffffffffff168152602001600081525090565b600080fd5b600080fd5b6000819050919050565b6106f2816106df565b81146106fd57600080fd5b50565b60008135905061070f816106e9565b92915050565b60006020828403121561072b5761072a6106d5565b5b600061073984828501610700565b91505092915050565b61074b816106df565b82525050565b600081519050919050565b600082825260208201905092915050565b60005b8381101561078b578082015181840152602081019050610770565b60008484015250505050565b6000601f19601f8301169050919050565b60006107b382610751565b6107bd818561075c565b93506107cd81856020860161076d565b6107d681610797565b840191505092915050565b600073ffffffffffffffffffffffffffffffffffffffff82169050919050565b600061080c826107e1565b9050919050565b61081c81610801565b82525050565b60006080820190506108376000830187610742565b818103602083015261084981866107a8565b90506108586040830185610813565b6108656060830184610742565b95945050505050565b61087781610801565b811461088257600080fd5b50565b6000813590506108948161086e565b92915050565b600080604083850312156108b1576108b06106d5565b5b60006108bf85828601610885565b92505060206108d085828601610700565b9150509250929050565b60006020820190506108ef6000830184610742565b92915050565b60006020828403121561090b5761090a6106d5565b5b600061091984828501610885565b91505092915050565b600081519050919050565b600082825260208201905092915050565b6000819050602082019050919050565b610957816106df565b82525050565b6000610969838361094e565b60208301905092915050565b6000602082019050919050565b600061098d82610922565b610997818561092d565b93506109a28361093e565b8060005b838110156109d35781516109ba888261095d565b97506109c583610975565b9250506001810190506109a6565b5085935050505092915050565b600060208201905081810360008301526109fa8184610982565b905092915050565b600080fd5b600080fd5b600080fd5b60008083601f840112610a2757610a26610a02565b5b8235905067ffffffffffffffff811115610a4457610a43610a07565b5b602083019150836001820283011115610a6057610a5f610a0c565b5b9250929050565b60008060208385031215610a7e57610a7d6106d5565b5b600083013567ffffffffffffffff811115610a9c57610a9b6106da565b5b610aa885828601610a11565b92509250509250929050565b600082825260208201905092915050565b6000610ad082610751565b610ada8185610ab4565b9350610aea81856020860161076d565b610af381610797565b840191505092915050565b610b0781610801565b82525050565b6000608083016000830151610b25600086018261094e565b5060208301518482036020860152610b3d8282610ac5565b9150506040830151610b526040860182610afe565b506060830151610b65606086018261094e565b508091505092915050565b60006020820190508181036000830152610b8a8184610b0d565b905092915050565b7f4e487b7100000000000000000000000000000000000000000000000000000000600052602260045260246000fd5b60006002820490506001821680610bd957607f821691505b602082108103610bec57610beb610b92565b5b50919050565b7f4e487b7100000000000000000000000000000000000000000000000000000000600052601160045260246000fd5b6000610c2c826106df565b91507fffffffffffffffffffffffffffffffffffffffffffffffffffffffffffffffff8203610c5e57610c5d610bf2565b5b600182019050919050565b7f4e487b7100000000000000000000000000000000000000000000000000000000600052604160045260246000fd5b60008190508160005260206000209050919050565b60006020601f8301049050919050565b600082821b905092915050565b600060088302610cfa7fffffffffffffffffffffffffffffffffffffffffffffffffffffffffffffffff82610cbd565b610d048683610cbd565b95508019841693508086168417925050509392505050565b6000819050919050565b6000610d41610d3c610d37846106df565b610d1c565b6106df565b9050919050565b6000819050919050565b610d5b83610d26565b610d6f610d6782610d48565b848454610cca565b825550505050565b600090565b610d84610d77565b610d8f818484610d52565b505050565b5b81811015610db357610da8600082610d7c565b600181019050610d95565b5050565b601f821115610df857610dc981610c98565b610dd284610cad565b81016020851015610de1578190505b610df5610ded85610cad565b830182610d94565b50505b505050565b600082821c905092915050565b6000610e1b60001984600802610dfd565b1980831691505092915050565b6000610e348383610e0a565b9150826002028217905092915050565b610e4d82610751565b67ffffffffffffffff811115610e6657610e65610c69565b5b610e708254610bc1565b610e7b828285610db7565b600060209050601f831160018114610eae5760008415610e9c578287015190505b610ea68582610e28565b865550610f0e565b601f198416610ebc86610c98565b60005b82811015610ee457848901518255600182019150602085019450602081019050610ebf565b86831015610f015784890151610efd601f891682610e0a565b8355505b6001600288020188555050505b505050505050565b82818337600083830152505050565b6000610f31838561075c565b9350610f3e838584610f16565b610f4783610797565b840190509392505050565b60006020820190508181036000830152610f6d818486610f25565b90509392505050565b7f4461746120656e74727920646f6573206e6f7420657869737400000000000000600082015250565b6000610fac60198361075c565b9150610fb782610f76565b602082019050919050565b60006020820190508181036000830152610fdb81610f9f565b905091905056fea264697066735822122089c9d731aeae41bddf0790f617538832334b86503c0c860ab5b7de870efbf5f964736f6c63430008150033",
  "immutableReferences": {},
  "source": "    // SPDX-License-Identifier: MIT\r\n    pragma solidity ^0.8.0;\r\n\r\n    contract SimpleDataArray {\r\n\r\n        struct DataEntry {\r\n            uint id;\r\n            string message;\r\n            address author;\r\n            uint timestamp;\r\n        }\r\n\r\n        // ID\r\n        mapping(uint => DataEntry) public dataEntries;\r\n        // ID\r\n        mapping(address => uint[]) public authorEntries;\r\n\r\n        uint public nextId;\r\n\r\n        event DataAdded(uint indexed id, address indexed author, string message);\r\n\r\n        function addData(string calldata _message) public {\r\n            uint currentId = nextId++;\r\n\r\n            dataEntries[currentId] = DataEntry({\r\n                id: currentId,\r\n                message: _message,\r\n                author: msg.sender,\r\n                timestamp: block.timestamp\r\n            });\r\n            authorEntries[msg.sender].push(currentId);\r\n\r\n            emit DataAdded(currentId, msg.sender, _message);\r\n        }\r\n\r\n        function getDataCount() public view returns (uint) {\r\n            return nextId;\r\n        }\r\n\r\n        function getDataById(uint _id) public view returns (DataEntry memory) {\r\n            require(_id < nextId, \"Data entry does not exist\");\r\n            return dataEntries[_id];\r\n        }\r\n\r\n        function getEntriesByAuthor(address _author) public view returns (uint[] memory) {\r\n            uint[] memory ids = authorEntries[_author];\r\n            // DataEntry[] memory entries = new DataEntry[](ids.length);\r\n            // for (uint i = 0; i < ids.length; i++) {\r\n            //     entries[i] = dataEntries[ids[i]];\r\n            // }\r\n            return ids;\r\n        }\r\n\r\n    }",
  "sourcePath": "E:\\repo\\warikanner\\evm\\contracts\\SimpleDataArray.sol",
  "compiler": {
    "name": "solc",
    "version": "0.8.21+commit.d9974bed.Emscripten.clang"
  },
  "schemaVersion": "3.4.16",
  "updatedAt": "2025-09-04T02:54:13.003Z",
  "networkType": "ethereum",
  "devdoc": {
    "kind": "dev",
    "methods": {},
    "version": 1
  },
  "userdoc": {
    "kind": "user",
    "methods": {},
    "version": 1
  }
}